{
  "contractName": "P2P",
  "abi": [
    {
      "inputs": [
        {
          "internalType": "address",
          "name": "cupon_Add",
          "type": "address"
        },
        {
          "internalType": "address",
          "name": "priceToken_Add",
          "type": "address"
        },
        {
          "internalType": "uint256",
          "name": "cuponAmount",
          "type": "uint256"
        },
        {
          "internalType": "uint256",
          "name": "price",
          "type": "uint256"
        }
      ],
      "name": "createOffer",
      "outputs": [],
      "stateMutability": "nonpayable",
      "type": "function"
    }
  ],
  "bytecode": "0x608060405234801561001057600080fd5b50610379806100206000396000f3fe608060405234801561001057600080fd5b506004361061002b5760003560e01c8063cc1d179b14610030575b600080fd5b61004a60048036038101906100459190610265565b61004c565b005b600160008573ffffffffffffffffffffffffffffffffffffffff1673ffffffffffffffffffffffffffffffffffffffff16815260200190815260200160002060009054906101000a900460ff166100a257600080fd5b600260008154809291906100b5906102fb565b9190505550600060405180608001604052808673ffffffffffffffffffffffffffffffffffffffff1681526020018573ffffffffffffffffffffffffffffffffffffffff16815260200184815260200183815250905080600080600254815260200190815260200160002060008201518160000160006101000a81548173ffffffffffffffffffffffffffffffffffffffff021916908373ffffffffffffffffffffffffffffffffffffffff16021790555060208201518160010160006101000a81548173ffffffffffffffffffffffffffffffffffffffff021916908373ffffffffffffffffffffffffffffffffffffffff16021790555060408201518160020155606082015181600301559050505050505050565b600080fd5b600073ffffffffffffffffffffffffffffffffffffffff82169050919050565b60006101fc826101d1565b9050919050565b61020c816101f1565b811461021757600080fd5b50565b60008135905061022981610203565b92915050565b6000819050919050565b6102428161022f565b811461024d57600080fd5b50565b60008135905061025f81610239565b92915050565b6000806000806080858703121561027f5761027e6101cc565b5b600061028d8782880161021a565b945050602061029e8782880161021a565b93505060406102af87828801610250565b92505060606102c087828801610250565b91505092959194509250565b7f4e487b7100000000000000000000000000000000000000000000000000000000600052601160045260246000fd5b60006103068261022f565b91507fffffffffffffffffffffffffffffffffffffffffffffffffffffffffffffffff8203610338576103376102cc565b5b60018201905091905056fea26469706673582212207fe34ec6b65185855c2b204130116cf52f6ac35578e06df9a0c71b7514233b9564736f6c634300080d0033",
  "immutableReferences": {},
  "source": "pragma solidity ^0.8.0;\n\n\ncontract P2P {\n\nstruct OfferStruct {\n    address cupon_Address;\n    address priceToken_Address;\n    uint cupon_Amount;\n    uint priceToken_Amount;\n\n}\n\nmapping(uint => OfferStruct) OfferData_PER_ID;\nmapping(address => bool) isTokenAllowed;\nuint s_ID;\n\nfunction createOffer(\naddress cupon_Add,\naddress priceToken_Add,\nuint cuponAmount,\nuint price\n) public {\n   if(!isTokenAllowed[cupon_Add]) {\n    revert();\n   }\n   s_ID++;\n   OfferStruct memory _offerData = OfferStruct({\n    cupon_Address: cupon_Add,\n    priceToken_Address: priceToken_Add,\n    cupon_Amount: cuponAmount,\n    priceToken_Amount: price\n   });\n\n\n   OfferData_PER_ID[s_ID] = _offerData;\n\n}\n\n}",
  "sourcePath": "/Users/martinsuarez/Documents/AAA/contracts/P2P.sol",
  "compiler": {
    "name": "solc",
    "version": "0.8.13+commit.abaa5c0e.Emscripten.clang"
  },
  "schemaVersion": "3.4.7",
  "updatedAt": "2023-04-23T15:11:55.779Z",
  "devdoc": {
    "kind": "dev",
    "methods": {},
    "version": 1
  },
  "userdoc": {
    "kind": "user",
    "methods": {},
    "version": 1
  }
}