{
  "contractName": "P2PContract",
  "abi": [
    {
      "inputs": [],
      "stateMutability": "nonpayable",
      "type": "constructor"
    },
    {
      "anonymous": false,
      "inputs": [
        {
          "indexed": false,
          "internalType": "uint256",
          "name": "deadLine",
          "type": "uint256"
        },
        {
          "indexed": false,
          "internalType": "uint256",
          "name": "Id",
          "type": "uint256"
        },
        {
          "indexed": false,
          "internalType": "address",
          "name": "cupon_Add",
          "type": "address"
        }
      ],
      "name": "OfferCreated",
      "type": "event"
    },
    {
      "inputs": [],
      "name": "s_ID",
      "outputs": [
        {
          "internalType": "uint256",
          "name": "",
          "type": "uint256"
        }
      ],
      "stateMutability": "view",
      "type": "function",
      "constant": true
    },
    {
      "inputs": [
        {
          "internalType": "address",
          "name": "cupon_Add",
          "type": "address"
        },
        {
          "internalType": "address",
          "name": "priceToken_Add",
          "type": "address"
        },
        {
          "internalType": "uint256",
          "name": "cuponAmount",
          "type": "uint256"
        },
        {
          "internalType": "uint256",
          "name": "price",
          "type": "uint256"
        }
      ],
      "name": "createOffer",
      "outputs": [],
      "stateMutability": "nonpayable",
      "type": "function"
    },
    {
      "inputs": [
        {
          "internalType": "address",
          "name": "tokenWhiteList",
          "type": "address"
        },
        {
          "internalType": "bool",
          "name": "status",
          "type": "bool"
        }
      ],
      "name": "whiteListTokens",
      "outputs": [],
      "stateMutability": "nonpayable",
      "type": "function"
    }
  ],
  "bytecode": "0x608060405234801561001057600080fd5b5033600160006101000a81548173ffffffffffffffffffffffffffffffffffffffff021916908373ffffffffffffffffffffffffffffffffffffffff16021790555061072a806100616000396000f3fe608060405234801561001057600080fd5b50600436106100415760003560e01c8063c57f992914610046578063cc1d179b14610064578063d8a3198814610080575b600080fd5b61004e61009c565b60405161005b91906103df565b60405180910390f35b61007e60048036038101906100799190610489565b6100a2565b005b61009a60048036038101906100959190610528565b610311565b005b60005481565b600360008573ffffffffffffffffffffffffffffffffffffffff1673ffffffffffffffffffffffffffffffffffffffff16815260200190815260200160002060009054906101000a900460ff166100f857600080fd5b60008490508073ffffffffffffffffffffffffffffffffffffffff166323b872dd3330866040518463ffffffff1660e01b815260040161013a93929190610577565b6020604051808303816000875af1158015610159573d6000803e3d6000fd5b505050506040513d601f19601f8201168201806040525081019061017d91906105c3565b506000808154809291906101909061061f565b919050555060006040518060a001604052808773ffffffffffffffffffffffffffffffffffffffff1681526020018673ffffffffffffffffffffffffffffffffffffffff1681526020018581526020018481526020016202a300426101f59190610667565b815250905080600260008054815260200190815260200160002060008201518160000160006101000a81548173ffffffffffffffffffffffffffffffffffffffff021916908373ffffffffffffffffffffffffffffffffffffffff16021790555060208201518160010160006101000a81548173ffffffffffffffffffffffffffffffffffffffff021916908373ffffffffffffffffffffffffffffffffffffffff1602179055506040820151816002015560608201518160030155608082015181600401559050507f1be7385e5a960aabd206224f90e23bb92719f1749fa15a10c0e39302eec9ab586202a300426102ee9190610667565b60005488604051610301939291906106bd565b60405180910390a1505050505050565b600160009054906101000a900473ffffffffffffffffffffffffffffffffffffffff1673ffffffffffffffffffffffffffffffffffffffff163373ffffffffffffffffffffffffffffffffffffffff161461036b57600080fd5b80600360008473ffffffffffffffffffffffffffffffffffffffff1673ffffffffffffffffffffffffffffffffffffffff16815260200190815260200160002060006101000a81548160ff0219169083151502179055505050565b6000819050919050565b6103d9816103c6565b82525050565b60006020820190506103f460008301846103d0565b92915050565b600080fd5b600073ffffffffffffffffffffffffffffffffffffffff82169050919050565b600061042a826103ff565b9050919050565b61043a8161041f565b811461044557600080fd5b50565b60008135905061045781610431565b92915050565b610466816103c6565b811461047157600080fd5b50565b6000813590506104838161045d565b92915050565b600080600080608085870312156104a3576104a26103fa565b5b60006104b187828801610448565b94505060206104c287828801610448565b93505060406104d387828801610474565b92505060606104e487828801610474565b91505092959194509250565b60008115159050919050565b610505816104f0565b811461051057600080fd5b50565b600081359050610522816104fc565b92915050565b6000806040838503121561053f5761053e6103fa565b5b600061054d85828601610448565b925050602061055e85828601610513565b9150509250929050565b6105718161041f565b82525050565b600060608201905061058c6000830186610568565b6105996020830185610568565b6105a660408301846103d0565b949350505050565b6000815190506105bd816104fc565b92915050565b6000602082840312156105d9576105d86103fa565b5b60006105e7848285016105ae565b91505092915050565b7f4e487b7100000000000000000000000000000000000000000000000000000000600052601160045260246000fd5b600061062a826103c6565b91507fffffffffffffffffffffffffffffffffffffffffffffffffffffffffffffffff820361065c5761065b6105f0565b5b600182019050919050565b6000610672826103c6565b915061067d836103c6565b9250827fffffffffffffffffffffffffffffffffffffffffffffffffffffffffffffffff038211156106b2576106b16105f0565b5b828201905092915050565b60006060820190506106d260008301866103d0565b6106df60208301856103d0565b6106ec6040830184610568565b94935050505056fea264697066735822122062d10f4241a5afc2b7f89cb5cb29d5e5dab8754af819d6e8d76484c56ec1c8a664736f6c634300080d0033",
  "immutableReferences": {},
  "source": "pragma solidity ^0.8.0;\n\nimport \"@openzeppelin/contracts/token/ERC20/IERC20.sol\";\n\n\ncontract P2PContract {\n    event OfferCreated(uint deadLine, uint Id, address cupon_Add);\n\n    constructor() {\n        owner = msg.sender;\n    }\n\n    struct OfferStruct {\n        address cupon_Address;\n        address priceToken_Address;\n        uint cupon_Amount;\n        uint priceToken_Amount;\n        uint deadLine;\n    }\n\n    modifier onlyOwner() {\n        if (msg.sender != owner) {\n            revert();\n        }\n        _;\n    }\n\n    uint public s_ID;\n    address owner;\n    mapping(uint => OfferStruct) OfferData_PER_ID;\n    mapping(address => bool) isTokenAllowed;\n\n    function createOffer(\n        address cupon_Add,\n        address priceToken_Add,\n        uint cuponAmount,\n        uint price\n    ) public {\n        if (!isTokenAllowed[cupon_Add]) {\n            revert();\n        }\n        IERC20 cuponToken = IERC20(cupon_Add);\n        cuponToken.transferFrom(msg.sender, address(this), cuponAmount);\n        s_ID++;\n        OfferStruct memory _offerData = OfferStruct({\n            cupon_Address: cupon_Add,\n            priceToken_Address: priceToken_Add,\n            cupon_Amount: cuponAmount,\n            priceToken_Amount: price,\n            deadLine: block.timestamp + 2 days\n        });\n        OfferData_PER_ID[s_ID] = _offerData;\n        emit OfferCreated(block.timestamp + 2 days, s_ID, cupon_Add);\n    }\n\n    function whiteListTokens(\n        address tokenWhiteList,\n        bool status\n    ) external onlyOwner {\n        isTokenAllowed[tokenWhiteList] = status;\n    }\n}\n",
  "sourcePath": "/Users/martinsuarez/Documents/AAA/contracts/P2P.sol",
  "compiler": {
    "name": "solc",
    "version": "0.8.13+commit.abaa5c0e.Emscripten.clang"
  },
  "schemaVersion": "3.4.7",
  "updatedAt": "2023-04-23T16:56:48.336Z",
  "networkType": "ethereum",
  "devdoc": {
    "kind": "dev",
    "methods": {},
    "version": 1
  },
  "userdoc": {
    "kind": "user",
    "methods": {},
    "version": 1
  }
}